:100000000C9428180C9459180C9459180C945918DD
:100010000C9459180C9459180C9459180C9459189C
:100020000C9459180C9459180C9459180C9459188C
:100030000C9459180C9459180C9459180C9459187C
:100040000C9459180C94439B0C9459180C945918FF
:100050000C9459180C9459180C94B4AB0C947BF371
:100060000C9459180C94CD350C94C3350C94591834
:100070000C9459180C9459180C9459180C9459183C
:100080000C9459180C9459180C9459180C9459182C
:100090000C9459180C9459180C9459180C9459181C
:1000A0000C9459180C9459180C9459180C9459180C
:1000B0000C9459180C9459180C9459180C945918FC
:1000C0000C9459180C9459180C9459180C945918EC
:1000D0000C9459180C9459180C9459180C945918DC
:1000E0000C945918AE48B148A048A448AA48E8481A
:1000F000B548B948BF48C348C748CD48D148D54896
:10010000E848DB48DF48E3487ED8B0D8B2D8C1D849
:10011000C6D87CD8D1D895F29AF29FF2A9F2B3F260
:100120002CF3BDF2C5F2CDF2D7F2E1F2EBF2FAF226
:1001300004F32CF30EF318F322F3084AD73B3BCE1B
:10014000016E84BCBFFDC12F3D6C74319ABD5683D6
:100150003DDA3D00C77F11BED9E4BB4C3E916BAA8E
:10016000AABE000000803F05A84CCDB2D44EB938DD
:1001700036A9020C50B9918688083CA6AAAA2ABEC4
:10018000000000803F000C94C0620C943C780C94FA
:100190003E800C94CD480C9468800C94FD770C94B0
:1001A00027B50C94D07C0C94B2770C94B2D80C94F4
:1001B0008D8E0C9423780C9459900C948ABA0C94DC
:1001C00006C00C948D630C94DB480C9499770C94C6
:1001D00023D80C94CA580C945DC30C94AFA50C940E
:1001E000B25E0C9404F30C94BC8C0C949FF20C94AF
:1001F000A2A70C947A780C94D68D0C94B5480C94E4
:1002000022F30C94F15B0C94F4BA0C94D48D0C94FE
:10021000958E0C94BAA50C94C1D80C940F7A0C94BA
:10022000BE5E0C94938E0C9444800C9413610C94D9
:1002300062800C94BA600C94EBF20C94E1F20C9492
:10024000EA4F0C94CDF20C94D88D0C94B85E0C94BB
:1002500092930C94B8A50C94EDA90C9451500C9465
:10026000B1480C945CC30C94717B0C94D6A60C948E
:1002700085A50C94B0D80C9476B50C946B780C943E
:10028000C5F20C9450800C94E3480C94D8B50C94AF
:1002900095F20C94E7610C94B9480C94C7480C94FF
:1002A0004F780C946C500C94B5600C9421B50C9460
:1002B0005C800C946BBA0C94A4480C94CB770C948F
:1002C000347B0C94AA480C94F0BA0C94DF480C943C
:1002D000B3B60C94257B0C94E37A0C9466D80C94FA
:1002E000D28D0C94C3480C94D2FD0C948E5E0C9469
:1002F00074500C94DA8D0C942CFF0C94EEB30C9487
:10030000BDF20C94B6A50C940EF30C94CB500C9447
:100310001B610C94DFBA0C948F8E0C94E8480C94FB
:10032000918E0C9499B60C94187D0C942B520C94CD
:10033000C45E0C94BC500C9454B50C947CAB0C94DF
:100340004A800C949AF20C942CF30C94C6D80C941A
:1003500018500C94695E0C94DBBA0C94B3F20C94B4
:1003600001500C9424B50C9490B50C94985E0C94A8
:10037000A0480C94B0600C9456800C94AE480C9439
:10038000AA590C943C580C9445570C946E780C94D4
:10039000BF480C94D1480C9484570C94A8A50C9495
:1003A00010C40C94CAA50C94A9F20C94A3570C94F5
:1003B000BF600C94A5810C94D7F20C946E500C94F1
:1003C00060C30C94D1D80C94E4770C94975D0C9492
:1003D000CCB80C9468780C94005F0C9435550C9450
:1003E000D0A60C947A500C945FB50C94935E0C9448
:1003F000FAF20C943F5E0C9410780C9418F30C9461
:100400007ED80C9466BC0C94D8BF0C94895E0C9476
:100410007CD80C948D780C94D5484E414E494E4969
:100420005459494E46CDCCCC3D0AD7233C17B7D1C1
:100430003877CC2B329595E6241FB14F0A00002067
:10044000410000C84200401C4620BCBE4CCA1B0EE6
:100450005AAEC59D7400407A10F35A00A0724E182F
:10046000090010A5D4E80000E87648170000E40B66
:1004700054020000CA9A3B000000E1F5050000802C
:10048000969800000040420F000000A08601000086
:1004900000102700000000E80300000000640000D6
:1004A0000000000A00000000000100000000002C15
:1004B00076D888DC674F0823DFC1DFAE59E1B1B7DA
:1004C00096E5E3E453C63AE651997696E8E6C284A7
:1004D00026EB898C9B62ED407C6FFCEFBC9C9F40BF
:1004E000F2BAA56FA5F490055A2AF75C936B6CF9E4
:1004F000676DC11BFCE0E40D47FEF520E6B500D0BA
:10050000ED902E0300943577050080841E080000CE
:10051000204E0A000000C80C333333330F986E129C
:10052000831141EF8D2114893BE65516CFFEE6DBA2
:1005300018D1844B381BF77C1D901DA4BBE42420EC
:100540003284725E228100C9F124ECA1E53D27438B
:100550004F4D4D554E49434154494F4E0044525919
:1005600052554E004552524F525300494E464F008D
:100570004543484F00536C6565702E2E2E004D6527
:10058000736820706F696E74206F7574206F6620B9
:1005900072616E67650A00436C69636B20746F203B
:1005A000526573756D652E2E2E004E6F204D6F7641
:1005B000652E00456E642066696C65206C697374F5
:1005C0000A00426567696E2066696C65206C697314
:1005D000740A00286E6F2066696C65290043757285
:1005E00072656E742066696C653A20005344207011
:1005F00072696E74696E67206279746520004E6F4F
:1006000074205344207072696E74696E670A0044E6
:10061000656C6574696F6E206661696C65642C2019
:1006200046696C653A200046696C652064656C65B6
:100630007465643A00256979202569642025696814
:100640002025696D20256973005072696E742074CD
:10065000696D653A2000496E76616C696420506965
:100660006E204D6F64650A006F6666004445425512
:10067000473A004D3131322053687574646F776E9C
:10068000004D31313320530042656420436F6F6C5D
:10069000696E672E2E2E004265642048656174697C
:1006A0006E672E2E2E0043522D38532056312E3099
:1006B000204F46462E004348414D4245525F544527
:1006C0004D504552415455524500424142595354B0
:1006D000455050494E47004D4F54494F4E5F4D4F86
:1006E00044455300544845524D414C5F50524F547D
:1006F000454354494F4E004C4F4E475F46494C4589
:100700004E414D45004155544F5245504F52545F54
:1007100053445F535441545553005344434152444E
:100720000050524F4D50545F535550504F5254004B
:10073000454D455247454E43595F504152534552EE
:1007400000434153455F4C494748545F4252494733
:1007500048544E45535300544F47474C455F4C490E
:100760004748545300534F4654574152455F504FEA
:10077000574552004255494C445F50455243454EFF
:1007800054004C4556454C494E475F444154410046
:100790005A5F50524F4245004155544F4C455645C3
:1007A0004C005052494E545F4A4F420050524F47FE
:1007B00052455353004155544F5245504F52545F88
:1007C00054454D5000564F4C554D455452494300E9
:1007D00042494E4152595F46494C455F5452414E41
:1007E000534645520053455249414C5F584F4E5F66
:1007F000584F4646004649524D574152455F4E417B
:100800004D453A4D61726C696E2062756766697814
:100810002D322E302E7820284A756E20313320322A
:100820003032302031363A34393A35332920534F7B
:10083000555243455F434F44455F55524C3A6874A7
:100840007470733A2F2F6769746875622E636F6DC9
:100850002F4D61726C696E4669726D776172652F9A
:100860004D61726C696E2050524F544F434F4C5F34
:1008700056455253494F4E3A312E30204D41434850
:10088000494E455F545950453A43522D38532056EE
:10089000312E302045585452554445525F434F55F0
:1008A0004E543A3120555549443A63656465326186
:1008B00032662D343161322D343734382D3962317E
:1008C000322D6335356336326633363766660A0055
:1008D0002F2F20004D31343520533C696E646578EC
:1008E0003E206F7574206F662072616E67652028E8
:1008F000302D31290A00416363656C65726174694A
:100900006F6E3A2050003F4A206F7574206F66204A
:1009100072616E67652028302E303120746F203070
:100920002E33290A0020204D61783A200020204DE6
:10093000696E3A2000536F667420656E6473746F3D
:1009400070733A200046523A0020466C6F773A2086
:100950000050726F7465637465642050696E0A009C
:100960004D424C2041646A757374205A00496E767A
:10097000616C69642065787472756465720A002020
:10098000643A0020693A0020703A004C4344204306
:100990006F6E74726173743A200064697300432946
:1009A0000A0061626C656420286D696E2074656D53
:1009B000702000436F6C6420657874727564657391
:1009C0002061726520004D34323120696E636F7290
:1009D0007265637420706172616D657465722075F3
:1009E000736167650A00486F6D652025732573255F
:1009F00073204669727374004F6666736574732062
:100A00004170706C696564004572723A20546F6F72
:100A1000206661722100546F6F20666172206672D9
:100A20006F6D207265666572656E636520706F69B3
:100A30006E740A00454550524F4D204F4B0A00201E
:100A400028302D313029002076616C7565206F7556
:100A500074206F662072616E676500416476616E16
:100A60006365204B3D00446F6E65207072696E7443
:100A7000696E672066696C650A004D3737004D3333
:100A8000310070056B0564055D054F054572726F99
:100A9000722077726974696E6720746F20454550C3
:100AA000524F4D210A004D343130004D313132006A
:100AB0004D3130380053544F505045442E20005093
:100AC00072696E7465722073746F707065642064EF
:100AD000756520746F206572726F72732E2046697F
:100AE0007820746865206572726F7220616E642070
:100AF000757365204D39393920746F2072657374B0
:100B00006172742E202854656D70657261747572FF
:100B1000652069732072657365742E205365742097
:100B20006974206166746572207265737461727491
:100B3000696E67290A004E6F20436865636B7375A1
:100B40006D2077697468206C696E65206E756D62C2
:100B500065722C204C617374204C696E653A2000DC
:100B6000636865636B73756D206D69736D61746324
:100B7000682C204C617374204C696E653A20004CDF
:100B8000696E65204E756D626572206973206E6FA7
:100B900074204C617374204C696E65204E756D62D3
:100BA00065722B312C204C617374204C696E653A50
:100BB00020004D313130005344207265616420655E
:100BC00072726F720A002121204B494C4C206361E4
:100BD00075736564206279204B494C4C20627574B2
:100BE000746F6E2F70696E0A002121204B494C4CA6
:100BF0002063617573656420627920746F6F206D66
:100C000075636820696E6163746976652074696DC7
:100C100065202D2063757272656E7420636F6D6D33
:100C2000616E643A2000627573793A207061757361
:100C3000656420666F7220696E7075740A00627553
:100C400073793A2070617573656420666F722075E0
:100C50007365720A00627573793A2070726F63650A
:100C60007373696E670A004D656469612052656D32
:100C70006F766564004D6564696120496E736572C5
:100C800074656400506C65617365205265736574AA
:100C9000005052494E5445522048414C544544005E
:100CA00025533A202553004B494C4C45442E2000F7
:100CB0005072696E7465722068616C7465642E2070
:100CC0006B696C6C28292063616C6C6564210A0077
:100CD000363726033C3D380E2E303E121A1C180AB9
:100CE000FF4308090844000120746F6F206C6F6E89
:100CF0006720657874727573696F6E20707265769F
:100D0000656E7465640A0020636F6C642065787496
:100D1000727573696F6E2070726576656E74656446
:100D20000A00DB0FC93F2BBCDA3F7EB30240EEF076
:100D300027403A946140EE4B9B4068A5D840CC23B5
:100D40001841206A5641D659974148DBD541602762
:100D5000174298B75542C01A974200000000F406A7
:100D600084BF925FA7BF5443E0BF04B11AC0002CF8
:100D700058C0D8F697C09C49D6C03A4E17C110D378
:100D800055C16E2497C184B5D5C1041A17C228AEC7
:100D900055C26A1797C2000000004D6F7665205A51
:100DA000005072696E742066726F6D204D656469C3
:100DB00061005072696E7420506175736564004DF6
:100DC0006F76652025736D6D004D6F766520302E32
:100DD000316D6D004D6F766520316D6D004D6F7614
:100DE000652031306D6D004D6F76652041786973F7
:100DF00000486F74656E6420746F6F20636F6C645D
:100E0000004578747275646572004D6F766520597F
:100E1000004D6F7665205800220A00556E6B6E6F8C
:100E2000776E20636F6D6D616E643A2022004352CD
:100E30002D38532056312E302052656164792E00B2
:100E40005072696E74696E672E2E2E0020453A002E
:100E5000205A3A0020593A000000210024002700BF
:100E60002A002D00300033000101000004010701B9
:100E70000A0100002200250028002B002E0031006E
:100E8000340002010000050108010B0100002000F0
:100E90002300260029002C002F0032000001000052
:100EA00003010601090105050505070508080808ED
:100EB000020202020A0A08080404040401010101F2
:100EC00001010101030303030303030304070707ED
:100ED0000C0C0C0C0C0C0C0C020202020606060692
:100EE000060606060B0B0B0B0B0B0B0B010210205F
:100EF0002008081020401020408002010201080450
:100F000002010102040810204080804020100804E3
:100F1000020180040201804020100804020108043C
:100F20000201010204081020408001020408102080
:100F3000408000000A0B02090C0D0E080703040193
:100F400000000000000000000000000000000000A1
:100F5000000000000000000000000000000012116E
:100F60001000000000000000000000000000000071
:100F7000000000000000000046696C2E20446961FA
:100F80002E004520696E206D6DC2B3004D333033A5
:100F900020553120452569205325690050494420BA
:100FA0004175746F74756E65202A005049442D4454
:100FB000202A005049442D49202A005049442D50F0
:100FC000202A0020082046616374002008204D611B
:100FD00078002008204D696E004175746F74656D4E
:100FE00070004C6F61642053657474696E677300A0
:100FF00053746F72652053657474696E6773004132
:101000006476616E6365642053657474696E67739A
:1010100000436F6E66696775726174696F6E005226
:101020006573746F72652044656661756C747300D6
:1010300050726568656174205045544720436F6E57
:1010400066005072656865617420504C4120436FA2
:101050006E66004C434420436F6E7472617374007B
:10106000313235004245443A4550434F53203130E8
:10107000304B0052756E61776179205761746368F7
:101080003A204F4E004D61782054656D7000323724
:1010900035004D696E2054656D700045313A20452C
:1010A00050434F53203130304B005053550047656B
:1010B0006E657269630050726F746F636F6C00428B
:1010C000617564003131353230300052414D50533A
:1010D00020312E3400457874727564657273004354
:1010E000522D38532056312E3000323032302D30D0
:1010F000352D333100546865726D6973746F727386
:1011000000426F61726420496E666F005072696EB2
:1011100074657220496E666F004261636B005374A0
:101120006F70004D3231004368616E6765204D6518
:101130006469610041626F7574205072696E7465F4
:101140007200526573756D65205072696E74004E41
:101150006F204D656469610054756E650053746F4E
:1011600070205072696E7400506175736520507202
:10117000696E7400496E666F2053637265656E0018
:10118000687474703A2F2F6D61726C696E66772E79
:101190006F7267006275676669782D322E302E781F
:1011A000002020506C616E6E6572427566666572D5
:1011B00042797465733A20002046726565204D655A
:1011C0006D6F72793A2000436F6D70696C65643A97
:1011D000204A756E20313320323032300A00204CE4
:1011E00061737420557064617465643A20323032E2
:1011F000302D30352D3331207C20417574686F726D
:101200003A2028546865444959477579393939294C
:101210000A006275676669782D322E302E780A00D2
:101220004D61726C696E0020536F667477617265F0
:101230002052657365740A00205761746368646F97
:10124000672052657365740A002042726F776E20C2
:101250006F75742052657365740A00204578746553
:10126000726E616C2052657365740A00506F776509
:101270007255700A006175746F25632E67004732DE
:10128000385859004D31303031006572726F72201C
:1012900077726974696E6720746F2066696C650A7D
:1012A00000446F6E6520736176696E672066696CB5
:1012B000652E0A004D323900456E6473746F707389
:1012C0000025532025632025632025632025630006
:1012D000656E6473746F7073206869743A200001DE
:1012E000FFFFFFFFFFFFFFFFFFFFFFFFFF0FFFFFFE
:1012F000FFFFFFFFFFFFFFFFFFFFFF1E00000000DB
:1013000000000000000007FFFF38000000000000A0
:101310000000000003FFFF7000000000000000005C
:10132000000001FFFF60000000000000000000005E
:1013300000FFFF6000000000000000000000007FD0
:10134000FFC000000000000000007800003FFFC068
:101350000FC0FC00000000007818001FFFC03FE134
:10136000FF0000000000783C000FFFC07FF3FF800B
:1013700000000000783C0007FFC0FFFFFFC0000036
:101380000000783C0003FFC1F87F87E00000000008
:1013900078000001FFC1F03F03E00000000078008A
:1013A0000000FFC1E01E01E01F0003E0783C03F0F5
:1013B0007FC1E01E01E07FC00FF8783C07FC3FC111
:1013C000E01E01E1FFE01FFC783C0FFE1FC1E01EA4
:1013D00001E3FFF03FFE783C1FFE0FC1E01E01E37A
:1013E000F3F83F3E783C3F3F07C1E01E01E7E0FCD9
:1013F0007C1F783C3E1F07C1E01E01E7C07C7C0FCC
:10140000783C3C0F03C1E01E01E7807C780F783CFC
:101410003C0F03C1E01E01E7803C7800783C3C0FA4
:1014200003C1E01E01E7803C7800783C3C0F03C11B
:10143000E01E01E7803C7800783C3C0F03C1E01ED1
:1014400001E7C03C7800783C3C0F03C1E01E01E39B
:10145000E03C78007C3C3C0F03C1E01E01E3FF3F11
:10146000F8007FBC3C0F03C1E01E01E1FF3FF80024
:101470003FBFFC0F03C1E01E01E0FF3FF8001FBFAC
:10148000FC0F03C1E01E01E07F3FF8000FBFFC0F1F
:101490000360000000000000000000000000076082
:1014A00000000000000000000000000006700000C6
:1014B000000000000000000000000E3800000000E6
:1014C00000000000000000001C1E000000000000E2
:1014D000000000000000780FFFFFFFFFFFFFFFFF8D
:1014E000FFFFFFFFF001FFFFFFFFFFFFFFFFFFFF19
:1014F000FFFF8043616E63656C004D6F74696F6EB2
:10150000004D383400426564204C6576656C696E28
:1015100067005374617274205072696E7400436185
:101520006E6E6F7420656E74657220737562646987
:10153000723A2000022E2E0044697361626C6520AD
:10154000537465707065727300473238004175746A
:101550006F20486F6D65005072656865617420503A
:101560004C4120456E64005072656865617420507E
:101570004C4120426564006563686F3A00457272B1
:101580006F723A000A4D6561737572656420706F01
:10159000696E74733A0A00337833206D6573682E70
:1015A000205A206F66667365743A20004F46460ADB
:1015B000004661646520486569676874200046617B
:1015C000696C656420746F20656E61626C65204291
:1015D0006564204C6576656C696E670A004D6573BD
:1015E0006820426564204C6576656C206461746196
:1015F0003A0A00496E76616C6964206D6573682EE5
:101600000A00206E6F7420656E74657265642E0A20
:1016100000206F6620004D424C2047323920706F09
:10162000696E7420004A206F7574206F66207261A5
:101630006E67652028302D0049206F7574206F6615
:101640002072616E67652028302D004D657368201B
:1016500070726F62696E6720646F6E652E0A005348
:1016600074617274206D6573682070726F62696E48
:10167000672077697468202247323920533122204D
:1016800066697273742E0A004732380A473239206D
:10169000533200686173206E6F20646174612E0A9A
:1016A000004D65736820426564204C6576656C6901
:1016B0006E67200053206F7574206F662072616E14
:1016C00067652028302D35292E0A00204D3932201B
:1016D000580020496E76616C696420657874727573
:1016E000646572200053657474696E677320537467
:1016F0006F726564002062797465733B2063726366
:10170000200053657474696E67732053746F72653B
:1017100064202800454550524F4D20646174617328
:10172000697A65206572726F722E0A002073746F79
:101730007265642073657474696E67732072657472
:10174000726965766564202800202863616C637582
:101750006C6174656429210A0020213D2000454503
:1017600050524F4D20435243206D69736D61746335
:1017700068202D202873746F726564292000496EDB
:101780006465783A2000204D61726C696E3D563771
:1017900039290A00454550524F4D207665727369CC
:1017A0006F6E206D69736D617463682028454550C4
:1017B000524F4D3D000000000000000000000000FE
:1017C000000000A0410000A041000080400202048F
:1017D0000000A0400000A0400000004000005C436A
:1017E00000005C4300005C43FFFFFF5761726E69BD
:1017F0006E673A20486F6D696E672042756D702084
:1018000044697669736F72203C20310A0056547225
:101810006176204D696E00566D696E00566D617877
:10182000204500566D6178205A00566D6178205928
:1018300000566D6178205800416D61782045004167
:101840006D6178205A00416D6178205900416D61C9
:1018500078205800412D54726176656C00412D52FC
:1018600065747261637400416363656C004A756EF0
:101870006374696F6E204465760045737465707398
:101880002F6D6D005A73746570732F6D6D005973F1
:10189000746570732F6D6D005873746570732F6D60
:1018A0006D002568753A25303268750025687564C5
:1018B0002025303268753A253032687500202020A6
:1018C00020202020001FE0201020102010102010C9
:1018D000202010201030300840048003001FE03F1B
:1018E000F03FF03FF01FE01FE03FF03FF03FF00F10
:1018F000C0078003003FFFF038007030FC3020FC50
:10190000102078102030102C00D02E31D02F7BD01A
:101910002F7BD02E31D02C00D020301020781020FA
:10192000FC1030FC303800703FFFF03FFFF0380013
:10193000703186302387102787902F87D02F03D0D0
:101940002030102078102078102030102F03D02F56
:1019500087D02787902387103186303800703FFF6B
:10196000F01FFFF81FFFF8041040020820020820B3
:10197000041040082080104100104100082080041D
:1019800010400000001FFFF81FFFF824F4D430506F
:10199000C38E20C2A24017828B7011127A910D81E2
:1019A0006CD90AA861E108C7586607615143061E51
:1019B0004B5D05C145A7041A411104093D98037107
:1019C0003931034036DB0265339102D43054028052
:1019D0002E1D02632CEE01752AC501B028A001104E
:1019E0002781018F2564012B244B01E0223401ACB7
:1019F000211F018D200D01801FFC00841EED00972A
:101A00001DDF00B81CD200E61BC600201BBC006412
:101A10001AB200B219A8000A19A0006A189900D1D8
:101A200017910040178B00B516840031167E00B365
:101A30001579003A157300C7146F0058146A00EE48
:101A40001366008813630025135E00C7125B006CE9
:101A500012570015125400C111510070114F00218E
:101A6000114B00D61049008D10470046104400026B
:101A7000104200C00F4000800F3E00420F3C0006A5
:101A80000F3B00CB0E3800930E37005C0E3500275D
:101A90000E3400F30D3200C10D3100900D300060A6
:101AA0000D2E00320D2D00050D2C00D90C2B00AE93
:101AB0000C2900850C29005C0C2700350C27000E32
:101AC0000C2600E80B2400C40B2400A00B23007D8F
:101AD0000B23005A0B2100390B2100180B2000F8B2
:101AE0000A1F00D90A1E00BB0A1E009D0A1D0080A5
:101AF0000A1D00630A1C00470A1B002C0A1B001168
:101B00000A1A00F7091A00DD091900C4091900AB07
:101B1000091900920917007B091800630917004C86
:101B200009160036091600200916000A091500F5E5
:101B3000081500E0081400CC081400B8081400A42C
:101B4000081400900813007D0812006B0813005859
:101B50000812004608120034081100230811001270
:101B600008110001081100F0071000E0071000D074
:101B7000071000C0071000B0070F00A10710009168
:101B8000070E0083070F0074070F0065070E00574C
:101B9000070E0049070E003B070D002E070E002020
:101BA000070D0013070D0006070D00F9060C00EDE8
:101BB000060D00E0060C00D4060C00C8060C00BCA4
:101BC000060C00B0060C00A4060B0099060C008D54
:101BD000060B0082060B0077060B006C060B0061FB
:101BE000060A0057060B004C060A0042060A003897
:101BF000060A002E060A0024060A001A060A001029
:101C000006090007060A00FD050900F4050900EBB6
:101C1000050900E2050900D9050900D0050900C73A
:101C2000050900BE050900B5050800AD050800A5B9
:101C30000509009C050800940508008C050800842F
:101C40000508007C050800740508006C05070065A0
:101C50000508005D050700560508004E050700470A
:101C60000507004005080038050700310507002A70
:101C7000050700230507001C050600160507000FD1
:101C80000507000805060002050700FB040600F52D
:101C9000040700EE040600E8040600E2040700DB87
:101CA000040600D5040600CF040600C9040600C3DC
:101CB000040600BD040600B7040600B1040500AC2C
:101CC000040600A6040600A00405009B0406009577
:101CD000040500900406008A0405008504050080C0
:101CE0000406007A04050075040500700405006B05
:101CF00004050066040500610405005C0405005746
:101D0000040500520405004D040500480405004385
:101D10000405003E0404003A0405003504050030C3
:101D20000404002C04050027040400230405001EFD
:101D30000404001A04040016040500110404000D34
:101D4000040400090405000404040000040400FC69
:101D5000030400F8030400F4030400F0030400EC9F
:101D6000030400E8030400E4030400E0030400DCCF
:101D7000030400D8030400D4030400D0030400CCFF
:101D8000030400C8030300C503030024F404D9209E
:101D90001BC40C5C0E9804C4095F0265077101F452
:101DA00005F900FB04B30048048700C1036900582B
:101DB00003550003034500BE023A0084023100537C
:101DC000022A002902250004022000E4011C00C8A8
:101DD000011900AF0117009801140084011300716C
:101DE0000110006101100051010E0043010D003689
:101DF000010B002B010B0020010B00150109000C49
:101E000001090003010800FB000800F3000800EBD3
:101E1000000700E4000600DE000600D8000600D23D
:101E2000000600CC000500C7000500C2000500BD8B
:101E3000000400B9000400B5000400B1000400ADC6
:101E4000000400A9000400A5000300A20003009FF5
:101E50000004009B0003009800030095000200931B
:101E6000000300900003008D0002008B0003008837
:101E70000002008600020084000300810002007F4F
:101E80000002007D0002007B000200790002007762
:101E9000000100760002007400020072000100716F
:101EA0000002006F0002006D0001006C0002006A79
:101EB0000001006900020067000100660001006582
:101EC0000001006400020062000100610001006086
:101ED0000001005F0002005D0001005C0001005B8A
:101EE0000001005A0001005900010058000100578C
:101EF000000100560001005500010054000100538C
:101F00000000005300010052000100510001005088
:101F10000001004F0001004E0000004E0001004D86
:101F20000001004C0001004B0000004B0001004A82
:101F3000000100490001004800000048000100477E
:101F40000001004600000046000100450000004579
:101F50000001004400010043000000430001004272
:101F6000000000420001004100000041000100406B
:101F70000001003F0000003F0001003E0000003E65
:101F80000001003D0000003D0001003C0000003C5D
:101F90000000003C0001003B0000003B0001003A53
:101FA0000000003A0001003900000039000100384B
:101FB0000000003800000038000100370000003742
:101FC0000001003600000036000000360001003538
:101FD000000000350000003500010034000000342E
:101FE0000000003400010033000000330000003323
:101FF0000001003200000032000000320001003118
:10200000000000310000003100010030000000300D
:10201000000000300001002F0000002F0000002F02
:102020000000002F0001002E0000002E0000002EF6
:102030000001002D0000002D0000002D0000002DEB
:102040000001002C0000002C0000002C0000002CDF
:102050000001002B0000002B0000002B0000002BD3
:102060000001002A0000002A0000002A0000002AC7
:1020700000010029000000290000002900000029BB
:1020800000000029000100280000002800000028AE
:1020900000000028000000280001002700000027A1
:1020A0000000002700000027000000270001002694
:1020B0000000002600000026000000260000002688
:1020C000000100250000002500000025000000257B
:1020D000000000250000002500010024000000246D
:1020E0000000002400000024000000240001002360
:1020F0000000002300000023000000230000002354
:102100000000002300000023000100220000002244
:102110000000002200000022000000220000002237
:10212000000100210000002100000021000000212A
:10213000000000210000002100000021000100201B
:10214000000000200000002000000020000000200F
:102150000000002000000020000000200001001FFF
:102160000000001F0000001F0000001F0000001FF3
:102170000000001F0000001F0001001E0000001EE4
:102180000000001E0000001E000000C23100001C04
:10219000260000F4190000D80F0000EB080000C072
:1021A000040000750200004001000054656D706578
:1021B00072617475726500416476616E6365204B6F
:1021C0000046616E205370656564004E6F7A7A6CCC
:1021D0006500426564205A004D61696E0050726569
:1021E00068656174205045544720456E6400507204
:1021F000656865617420504554472042656400431A
:102200006F6F6C646F776E005072656865617420E3
:1022100050455447005072656865617420504C41C8
:10222000004261627973746570205A00466C6F7762
:102230000020436F756E7420583A004D31303620BF
:102240005000453100626564002C20737973746519
:102250006D2073746F7070656421204865617465CA
:10226000725F49443A200048656174696E67204690
:1022700061696C65640048656174696E67206661B8
:10228000696C656400202D20496E76616C6964205C
:102290006578747275646572206E756D6265722002
:1022A000210A00544845524D414C2052554E415749
:1022B000415900546865726D616C2052756E61778A
:1022C0006179004572723A204D415854454D500095
:1022D0004D415854454D5020747269676765726569
:1022E00064004572723A204D494E54454D50004DA0
:1022F000494E54454D502074726967676572656434
:102300000070012C0190012701B0012201C0011DC4
:1023100001F00118011002130130020E01600209E0
:102320000190020401C002FF000003FA004003F51F
:10233000008003F000D003EB002004E6007004E10D
:1023400000E004DC004005D700C005D2004006CD07
:1023500000D006C8008007C3003008BE00F008B9EE
:1023600000C009B400B00AAF00B00BAA00D00CA5A1
:1023700000000EA000500F9B00C01096005012915C
:102380000000148C00C0158700B0178200B0197DC2
:1023900000D01B7800001E730040206E0090226960
:1023A00000F024640040275F0090295A00E02B557C
:1023B00000102E500020304B0010324600E0334118
:1023C0000090353C001037370070383200A0392DAE
:1023D00000B03A2800A03B2300603C1E00103D19CD
:1023E00000903D1400103E0F00703E0A00C03E05F4
:1023F00000003F0000403FFBFF803FF6FFC03FF181
:10240000FF4F6666004F6E00496E6974004D3432AE
:10241000380046696C616D656E7400537465707345
:102420002F6D6D004A65726B00416363656C657268
:102430006174696F6E0056656C6F636974790053DF
:10244000657420486F6D65204F6666736574730010
:102450004C6576656C696E6720446F6E6521004E31
:1024600065787420506F696E74002569202F2025CF
:10247000750047323920533100436C69636B207417
:102480006F20426567696E00486F6D696E672058FE
:10249000595A004661646520486569676874004C54
:1024A0006576656C20426564003F00496E69746919
:1024B000616C697A6520454550524F4D00507269F4
:1024C0006E742041626F72746564004D3235005045
:1024D000617573696E672E2E2E00454550524F4D23
:1024E0002056657273696F6E204572726F72004577
:1024F0004550524F4D20496E646578204572726F89
:102500007200454550524F4D204352432045727250
:102510006F720049676E6F72650023646566696E4D
:10252000652044454641554C545F004B6420004BA8
:102530006920004B702000504944204175746F742D
:10254000756E652066696E697368656421205075D3
:102550007420746865206C617374204B702C204B60
:102560006920616E64204B6420636F6E7374616ECA
:1025700074732066726F6D2062656C6F7720696E70
:10258000746F20436F6E66696775726174696F6EF0
:102590002E680A00504944204175746F74756E6549
:1025A000206661696C6564212074696D656F75745E
:1025B0000A000A20436C6173736963205049442008
:1025C0000A00204B643A2000204B693A2000204B3F
:1025D000703A20002054753A2000204B753A2000B4
:1025E000206D61783A2000206D696E3A20002064E9
:1025F0003A200020626961733A200050494420412A
:1026000075746F74756E652073746172740A00500E
:102610004944204175746F74756E65206661696CFC
:102620006564212054656D706572617475726520F2
:10263000746F6F20686967680A00504944204175CB
:10264000746F74756E65206661696C6564212042E3
:102650006164206578747275646572206E756D6250
:1026600065720A004572723A207574663820666F8A
:102670006E74206E6F7420696E697469616C697A1A
:1026800065642E00FFE0FFD140A0C8A6A22FF8008D
:1026900023AC00AF10FFFEFF05FFD0FFE0FFC1FF3E
:1026A000D1E240A0C8A6A22FF800238127AC00AF3A
:1026B000FFD0FF64FFD1A5FFD0FF64FF64FFD1A46A
:1026C000FFD0FFFE000C0F00FE07022603BC017FB7
:1026D000FE08FE08FE05080806000040F0C88888CD
:1026E000987810050808060000C0F888888888884F
:1026F000F80505050600012030F830200508080619
:1027000000002070F820202020E00509090600FFC5
:102710002070A8A8B888887020050606060001E089
:102720008CEA8C8A0A0509090600FFF8A8888888BF
:102730008888A8F8050A0A0600FE205050505088E4
:10274000A8A8887003030306000340A040FFFFFF12
:10275000FFFFFFFFFFFFFFFFFFFFFFFFFFFFFFFF89
:10276000FFFFFF0000000605FF01070706020080CB
:10277000808080800080030303060105A0A0A005DF
:10278000060606000050F85050F8500509090600EA
:10279000FF2070A8A07028A8702005070706000079
:1027A000C8C8102040989805070706000040A0A060
:1027B00040A8906801030306020580808003090990
:1027C0000601FF2040408080804040200309090628
:1027D00001FF804040202020404080050707060080
:1027E0000020A8702070A820050505060001202003
:1027F000F820200203030601FFC040800501010606
:102800000003F8020202060100C0C0050707060027
:10281000000810102040408005070706000070885F
:1028200098A8C8887003070706010040C0404040D0
:1028300040E0050707060000708808102040F805F2
:102840000707060000F8081030088870050707061B
:10285000000010305090F81010050707060000F82F
:1028600080F008088870050707060000304080F0F7
:10287000888870050707060000F80810102020203F
:1028800005070706000070888870888870050707AC
:1028900006000070888878081060020505060100AF
:1028A000C0C000C0C00206060601FFC0C000C04094
:1028B0008003050506010120408040200503030632
:1028C0000002F800F8030505060101804020408061
:1028D0000507070600007088102020002005070764
:1028E0000600007088B8A8B88070050707060000C9
:1028F000708888F8888888050707060000F048482F
:10290000704848F0050707060000708880808088BE
:1029100070050707060000F04848484848F00507DA
:1029200007060000F88080F08080F80507070600A1
:1029300000F88080F080808005070706000070881E
:102940008080988870050707060000888888F888C6
:102950008888030707060100E04040404040E0054A
:1029600007070600003810101010906005070706D2
:1029700000008890A0C0A09088050707060000808E
:102980008080808080F805070706000088D8A88826
:102990008888880507070600008888C8A89888885E
:1029A0000507070600007088888888887005070773
:1029B000060000F08888F080808005070706000088
:1029C00070888888A89068050707060000F0888846
:1029D000F0A09088050707060000708880700888BE
:1029E00070050707060000F820202020202005079A
:1029F0000706000088888888888870050707060011
:102A000000888888885050200507070600008888BD
:102A10008888A8A85005070706000088885020501D
:102A20008888050707060000888850202020200598
:102A30000707060000F80810204080F8030909067F
:102A400001FFE080808080808080E005070706002D
:102A500000804040201010080309090601FFE02013
:102A6000202020202020E0050303060005205088B8
:102A70000501010600FEF80303030601058040205E
:102A80000505050600007008788878050707060028
:102A9000008080F0888888F00505050600007080B9
:102AA00080887005070706000008087888888878FD
:102AB0000505050600007088F08070050707060010
:102AC00000304840E04040400507070600FE70889F
:102AD00088887808700507070600008080F08888DD
:102AE00088880307070601004000C0404040E0041A
:102AF00009090601FE100030101010109060050743
:102B00000706000080808890E09088030707060190
:102B100000C04040404040E0050505060000D0A848
:102B2000A8A8A8050505060000B0C888888805057E
:102B30000506000070888888700507070600FEF00B
:102B4000888888F080800507070600FE78888888D6
:102B5000780808050505060000B0C88080800505D6
:102B60000506000078807008F005070706000020C1
:102B700020F8202020180505050600008888889880
:102B800068050505060000888888502005050506AB
:102B900000008888A8A85005050506000088502078
:102BA00050880507070600FE888888502040800569
:102BB0000505060000F8102040F80309090601FF8A
:102BC0002040404080404040200109090602FF802B
:102BD00080808080808080800309090601FF80401A
:102BE0004040204040408005030306000248A89072
:102BF000FF202F002042403A0020403A007C3C3E1B
:102C00005E2B3D3F2F5B5D3B2C2A225C006F706585
:102C10006E206661696C65642C2046696C653A209B
:102C2000002053697A653A20004D3234004D32332A
:102C30002025730046696C652073656C6563746557
:102C4000640A0046696C65206F70656E65643A20A1
:102C500000454E4420535542524F5554494E450A63
:102C6000002220706F73002220706172656E743ACA
:102C70002200535542524F5554494E452043414C32
:102C80004C207461726765743A2200537562636107
:102C90006C6C204F766572666C6F77004578636563
:102CA00065646564206D617820535542524F5554D8
:102CB000494E452064657074683A310A005772695C
:102CC00074696E6720746F2066696C653A200066CF
:102CD0007265736800646F696E67004E6F772000DD
:102CE0004361703A0047322F47332062616420709D
:102CF0006172616D65746572730A00656E717565E8
:102D00007565696E672022006F6B00526573656E92
:102D1000643A200020573A00452025530043616E55
:102D20006E6F74206F70656E2073756264697220B7
:102D30000053442063617264206F6B0A006F7065FA
:102D40006E526F6F74206661696C65640A00766FFD
:102D50006C756D652E696E6974206661696C656459
:102D60000A004E6F20534420636172640A002052AF
:102D70000048617264636F646564204465666175D0
:102D80006C742053657474696E6773204C6F616452
:102D900065640A003B200020204D393030204B0074
:102DA0004C696E65617220416476616E63653A00BC
:102DB00020204D3235302043004C434420436F6E79
:102DC00074726173743A0020204D3330312050000A
:102DD0005049442073657474696E67733A002046E5
:102DE0000020480020204D3134352053004D6174BF
:102DF000657269616C2068656174757020706172BC
:102E0000616D65746572733A002020473239205332
:102E100034205A00202047323920533320490020E3
:102E2000204D3432302053004D6573682042656474
:102E3000204C6576656C696E673A0020204D323013
:102E400036205800486F6D65206F66667365743A6A
:102E500000204A0020204D32303520420041647667
:102E6000616E6365643A20423C6D696E5F736567AD
:102E70006D656E745F74696D655F75733E20533C5C
:102E80006D696E5F66656564726174653E20543C71
:102E90006D696E5F74726176656C5F66656564729C
:102EA0006174653E204A3C6A756E635F6465763E78
:102EB0000020540020204D32303420500041636304
:102EC000656C65726174696F6E2028756E697473C4
:102ED0002F7332293A20503C7072696E745F6163BF
:102EE00063656C3E20523C726574726163745F610D
:102EF0006363656C3E20543C74726176656C5F61FF
:102F00006363656C3E0020204D3230312058004D07
:102F10006178696D756D20416363656C657261747C
:102F2000696F6E2028756E6974732F7332293A00A9
:102F300020204D3230332058004D6178696D756D19
:102F4000206665656472617465732028756E6974A6
:102F5000732F73293A005374657073207065722063
:102F6000756E69743A0020204D3230302044300AAA
:102F70000020204D323030204400204469736162CB
:102F80006C65640A0046696C616D656E74207365DA
:102F90007474696E67733A0020204D3134392043D0
:102FA000203B20556E69747320696E2043656C73F5
:102FB0006975730A0020286D6D2900202047323181
:102FC000202020203B20556E69747320696E206D8F
:102FD0006D00486F6D696E67204661696C656400BD
:102FE0006F70656E00545249474745524544007A18
:102FF0005F6D696E00795F6D696E00785F6D696EF7
:10300000005265706F7274696E6720656E647374C8
:103010006F70207374617475730A000000FA4300C6
:1030200000FA430000A0400000C8410000A0420098
:1030300000A0420000C8430000C842F4010000F4B0
:10304000010000640000008813000000D2FD2CFF86
:1030500011241FBECFEFD1E2DEBFCDBF00E00CBF19
:1030600012E0A0E0B2E0E2E2FDE102E00BBF02C04C
:1030700007900D92A23EB107D9F724E1A2EEB2E08B
:1030800001C01D92A23FB207E1F718E1C7E2D8E103
:1030900000E006C021970109802FFE010F94CF0A9E
:1030A000C632D10780E00807A9F70E94FFF40D940B
:1030B0007F0E0C9400002F923F924F925F926F927E
:1030C0007F928F929F92AF92BF92CF92DF92EF92B8
:1030D000FF920F931F93CF93DF93CDB7DEB7E8979F
:1030E0000FB6F894DEBF0FBECDBF88AF2091EC02C3
:1030F0002DA781E08093EC02809146148D3409F471
:10310000F4C1843511F40C943028873411F00C94F8
:103110004B2820914414309145142531310511F488
:103120000C944D286CF42430310534F422303105F0
:10313000A4F537FF26C0D5C124303105E1F1D1C156
:103140002A32310509F408C164F42C31310509F43F
:1031500070C02D31310509F0C4C10E9443690C943F
:103160004D282B35310509F474C02C35310509F48F
:1031700075C02A35310509F0B4C11092EB020C94E8
:103180004D288091C50B813011F00C944D280E9480
:103190001D660E94FD880C944D288091C50B8130DE
:1031A00011F00C944D282230310509F080E00E9486
:1031B00057E20C944D2880E50E941066882329F080
:1031C0000E944C656B017C0103C0C12CD12C76019F
:1031D00083E50E941066882361F00E94946520E0D8
:1031E00030E04AE754E40F9442040F94650C6B01FD
:1031F0007C010E940A828091620D811105C060E00D
:1032000085E795E00E949FBF0E946FF3C60ED71E10
:10321000E81EF91E0E946FF3DC01CB018C199D0999
:10322000AE09BF09B7FD02C00C944D280E94CC30F6
:10323000F1CF80912C0C8770873011F00C945628B8
:1032400060E08FE40E94DE6681110C944D280C949E
:1032500056288FE08093EB020C944D2840E7242EF3
:1032600042E0342E50E2E52E5CE0F52EE5EFFDE085
:10327000FF8FEE8F61EDC62E69E0D62E00E010E0E4
:10328000D1018D911D010E941066882309F44BC065
:103290000E9494652B013C01133049F0F601208116
:1032A0003181428153810F94F10A2B013C01AE8D93
:1032B000BF8D2D913D914D915C91C301B2010F9451
:1032C000F10A4B015C012DEB37E346E855EB0F9417
:1032D000520D87FD0AC02DEB37E346E855E3C501E3
:1032E000B4010F94DC031816F4F4133051F4409237
:1032F000010E5092020E6092030E7092040E01E0D5
:1033000012C0A5019401F7016081718182819381CE
:103310000F94F20AD7016D937D938D939C9313972D
:10332000812F0E943C881F5FB4E0EB0EF11CEE8DF4
:10333000FF8D3496FF8FEE8FF4E0CF0ED11C14304A
:1033400009F09ECF002321F081E09EE00E9431A58C
:103350000E94958C0C944D288091C50B813011F002
:103360000C944D2889E40E941066F82E882321F0E1
:103370000E949065182F01C010E08AE40E94106638
:10338000082F882319F00E94906501C080E0FF207B
:1033900011F0133020F4002341F0833030F08EE739
:1033A00095E00E9458680C944D2890E1E5EFFDE00F
:1033B000ADE2BCE001900D929A95E1F7FF2091F00B
:1033C00024E01202F0011124E65BFE4E408151819F
:1033D0006281738140932D0C50932E0C60932F0CBF
:1033E0007093300C002391F034E08302F00111243B
:1033F000E25CFE4E80819181A281B3818093310C89
:103400009093320CA093330CB093340C86E40E945A
:103410001066882311F40C948A2D0E9494656B0128
:103420007C0120E030E0A9010F94520D181614F031
:103430000C948A2D20E030E040E752E4C701B60149
:103440000F94EC0B4B015C01C0903802D090390214
:10345000E0903A02F0903B0220E030E0A9010F94A6
:10346000DC03882341F08092380290923902A092C6
:103470003A02B0923B02009136021091370284E684
:1034800090E09093370280933602809006029090ED
:103490000702A0900802B090090280E090E0A0E846
:1034A000BFE38093060290930702A0930802B093B3
:1034B00009020E94FD88C0923802D0923902E0923F
:1034C0003A02F0923B021093370200933602809248
:1034D000060290920702A0920802B09209020C9490
:1034E0004D280E94224B0C944D28809144149091B9
:1034F00045148537910509F435C70CF036C18C3475
:10350000910509F4D2C40CF055C08931910509F434
:10351000E2C21CF58431910509F48EC27CF481313C
:10352000910509F475C22CF4029708F414C20C94A6
:103530002D28429709F436C60C942D288631910522
:1035400009F49FC20CF499C28731910509F4A2C213
:10355000489709F4B4C20C942D288E31910509F4D2
:103560003CC3ACF48B31910509F4DCC20CF4CCC241
:103570008C31910509F429C34D9711F00C942D2835
:1035800080916F128E7F80936F120C944D28803241
:10359000910509F483C30CF4C4C38A32910509F47C
:1035A0006BC48B34910511F00C942D280E9442BC01
:1035B0000C944D288A36910509F4C8C4CCF584359D
:1035C000910509F4EFC5FCF48135910509F4CFC5E7
:1035D0004CF48D34910511F00C942D280E9478BC88
:1035E0000C944D288235910509F4D5C58335910594
:1035F00011F00C942D288091EB028F7E80628093D5
:10360000EB020C944D288C35910509F41AC634F45C
:103610008535910509F4F2C50C942D28883691055D
:1036200009F458C48936910509F47CC40C942D28FA
:103630008F36910509F4C6C484F48C36910509F4DB
:1036400005C50CF4A3C48D36910509F467C48E3604
:10365000910509F4A4C40C942D288137910509F42F
:1036600004C50CF4F9C48237910509F474C6833794
:10367000910511F00C942D2885EF97E00E94586871
:1036800060E085EE97E00E948DE760E080ED97E0D6
:103690000E948DE761E086EB94E20E948DE761E095
:1036A00085EC97E00E948DE761E085EB97E00E9452
:1036B0008DE760E08CEA97E00E948DE761E082EAA6
:1036C00097E00E948DE760E088E997E00E948DE72F
:1036D00060E080E997E00E948DE761E082E897E092
:1036E0000E948DE760E084E797E00E948DE760E04C
:1036F00085E697E00E948DE760E087E597E00E940D
:103700008DE760E081E497E00E948DE760E080E370
:1037100097E00E948DE760E081E297E00E948DE7EC
:1037200061E08AE197E00E948DE760E085E097E044
:103730000E948DE760E087EF96E00E948DE761E0F0
:1037400084EE96E00E948DE760E087ED96E00E94AF
:103750008DE761E08AEC96E00E948DE760E086EB01
:1037600096E00E948DE70C944D28823241E0940748
:1037700011F40C94DD240CF06EC0893C910509F421
:10378000EBC68CF58C38910509F494C4BCF48737EA
:10379000910509F431C60CF4F5C58837910509F493
:1037A0002EC68937910511F00C942D281092F0093E
:1037B0001092EF090E945BEE0C944D288B39910515
:1037C00009F4AFC434F48139910509F420C60C948E
:1037D0002D288E3B910509F492C4883C910509F48B
:1037E00071C60C942D28833D910509F458C7D4F473
:1037F0008C3C910509F4F2C634F48B3C910509F434
:10380000CEC60C942D288D3C910509F41BC78E3C27
:10381000910511F00C942D2873EFE72E79E0F72E27
:1038200010E02BC78D3D910511F40C943C243CF421
:103830008C3D910511F40C9415240C942D28823E96
:10384000910511F40C9492248A3F910511F40C9483
:10385000DA250C942D28843FA1E09A0711F40C94EA
:1038600071270CF041C08039E1E09E0711F40C94FF
:103870003326ECF48D3221E0920711F40C945B2591
:103880003CF48C32914011F40C9446250C942D2874
:103890008E3251E0950711F40C94EF258F32914050
:1038A00011F00C942D280E94BCC60C944D28843A2B
:1038B000B1E09B0711F40C9436264CF48A39914000
:1038C00011F00C942D280E94542E0C944D28853A0A
:1038D00021E0920711F40C9439268C3A914011F4AE
:1038E0000C940A270C942D288C3042E0940711F494
:1038F0000C949427B4F4863FA1E09A0711F40C9439
:10390000772714F40C947427873FE1E09E0711F4A5
:103910000C947A27883F914011F40C9483270C94DF
:103920002D28803A23E0920709F4EDC13CF4843855
:10393000934011F40C949C270C942D28873E53E05F
:10394000950711F40C940528893E934011F40C94CA
:1039500013280C942D2880E50E941066882329F0F6
:103960000E944C656B017C0103C0C12CD12C7601F7
:1039700083E50E941066882361F00E94946520E030
:1039800030E04AE754E40F9442040F94650C6B0155
:103990007C010E940A828091421490914314009706
:1039A00021F061E00E9433C005C060E087E995E046
:1039B0000E949FBF1091EC0283E08093EC0281E0B3
:1039C0008093B80DC114D104E104F10431F00E94D8
:1039D0006FF3C60ED71EE81EF91E8091B80D88231E
:1039E00011F40C94FC29C114D104E104F10411F484
:1039F0000C94F8290E946FF3DC01CB018C199D090E
:103A0000AE09BF09B7FF02C00C94F8290C94FC2939
:103A100080913E1484FF02C00C94032A80914014CC
:103A200087FF02C00C94032A80914114837011F027
:103A30000C94032A0C941F2A82EC95E00E9458688B
:103A40008AE890E10E94A0CC8BE1EAE8F0E1DE0197
:103A5000119601900D928A95E1F760E070E0CE0139
:103A600001960E94B7ECCE0101960E94A5CC83EB93
:103A700095E00E9458680C944D280E9435E80C94FB
:103A80004D280E94F2DB80916F12877F80936F1226
:103A90000C944D28E0914214F091431480818823C6
:103AA00029F0803209F410823196F8CF60E08091DD
:103AB0004214909143140E944FDC0C944D280E94B4
:103AC000EF2E882321F00E946EDD0E9442BC0E94EE
:103AD000E84A0C944D2880916F1282FF03C08B7FBF
:103AE00080936F128091D009813089F782E08093B2
:103AF000D0090E946FF36093C80D7093C90D809335
:103B0000CA0D9093CB0DE3CF80916F1283FD02C05D
:103B10000C944D2883E50E94106681110C942D2A87
:103B20000C944D2883E40E94C765882319F18DED1C
:103B300095E00E94586880913410882391F0BE016E
:103B40006F5F7F4F81E390E10E9467CB8E010F5F33
:103B50001F4FF80181918F01882339F00E94A02F17
:103B6000F8CF83ED95E00E9458688AE00E94A02F6C
:103B70000C944D2880916F1282FF21C08CEE95E04D
:103B80000E94586860916B1270916C1280916D1256
:103B900090916E124AE00E94A72F8FE20E94A02F00
:103BA00060916712709168128091691290916A1207
:103BB0004AE00E94A72F0E94A5300C944D288EEF5A
:103BC00095E00E9458680C944D2880914214909181
:103BD00043140E9401DC0C944D2880916F1283FDE8
:103BE00002C00C944D280E940B4B80916F1283FDF4
:103BF00002C00C944D284091421450914314BE01D0
:103C0000645E7F4F80E00E94BED68C01009711F465
:103C10000C944D286C8D7D8D19821C8222E0AC01A4
:103C2000CE0101960E94D5D0811102C0F12C14C0A2
:103C3000CE0101960E942CD68823C1F361E0CE010B
:103C400001960E944BCB009789F325EEDC012C9363
:103C50001C820E947BE9F82ECE0101960E94A5CC21
:103C6000B801FF2089F087E296E00E94156B8AE098
:103C70000E94A02F10926B1210926C1210926D1273
:103C800010926E120C944D288FE096E00E94156BF6
:103C900088EC96E10E9458680C944D2880916F1230
:103CA00082FD0E940A8280916F1283FD02C00C94F3
:103CB0004D2860E080E50E94DE66182F682F809115
:103CC0004214909143140E944FDC83E50E941066D9
:103CD000882381F00E945C65AB01BC0140936B12AC
:103CE00050936C1260936D1270936E1281E390E1A9
:103CF0000E94A1EB0E946EDD11110C944D280E94D0
:103D000042BC0C944D282091421430914314909160
:103D10006F12926090936F12C9010E9401DC0C94A3
:103D20004D280E94F3BB7B018C0120E831E541E086
:103D300050E00F94320AC9016DE671E00F94880AD1
:103D40004B015C01C801B70120E13EE040E050E0DA
:103D50000F94320ACA01B90128E130E040E050E096
:103D60000F94320A762E672EC62ED72E3CE3232ED2
:103D7000312C412C512CC801B701A20191010F94A3
:103D8000320AF62EE72ECA01B901A20191010F9461
:103D9000320ACB018E010F5F1F4F8114910499F0FD
:103DA000EF92FF927F936F936F927F92BF92AF9249
:103DB0009F928F9285E396E09F938F931F930F932B
:103DC0000F94740313C0A114B104B1F0EF92FF92E9
:103DD0007F936F936F927F92BF92AF9289E396E049
:103DE0009F938F931F930F930F9474030FB6F894C0
:103DF000DEBF0FBECDBF30C0CD2879F0EF92FF926D
:103E00007F936F936F927F928DE396E09F938F9352
:103E10001F930F930F947403E9CF892B69F0EF92EE
:103E2000FF927F936F9381E496E09F938F931F930C
:103E30000F930F947403DACFEF92FF9285E496E02C
:103E40009F938F931F930F930F9474030F900F9072
:103E50000F900F900F900F9060E0C8010E9433C048
:103E60000E942C6BB80189E496E00E94156B8AE0F1
:103E70000E94A02F0C944D286DE070E080E50E9418
:103E8000CF668C0197FF02C00C944D28E82E60E0AD
:103E900089E40E94DE6681110C943E2A802F0E94E4
:103EA000C5F381115CC50C943E2A8091D009813004
:103EB00011F00C944D2882E08093D0090E946FF39A
:103EC0006093C80D7093C90D8093CA0D9093CB0D6C
:103ED0000C944D2880910F0983FF02C00C944D284B
:103EE0000E94306B87FF02C00C944D2883E50E942E
:103EF0001066882379F00E9494650F945E0CCB01C4
:103F00000E94C6D10E94ECAB811104C00E9478BC13
:103F10000E94E84A0E9449A40C944D280E941BDE8E
:103F20000C944D280E94306B182F87FD0AC088E042
:103F30009DE20E945868812F0E94D6D18AE00E949B
:103F4000A02FADA5A093EC020C94942D80E50E94C7
:103F5000304B81110C944D2881E40E94C765882361
:103F600021F06091970370E002C06FEF70E083E58D
:103F70000E947AE78F3F910519F010F08FEF90E0E3
:103F8000BC0180E00E946AB30C944D2880E50E9439
:103F9000304B60E070E00E946AB30C944D288EE4D0
:103FA0000E941066882311F40C944D280E945C65D1
:103FB0006093CB147093CC148093CD149093CE1453
:103FC0000C944D2883E50E94C765882329F083E57A
:103FD0000E94304B80930F090E942C6B8CE696E078
:103FE0000E94586880910F09882369F122E8E22E27
:103FF0002AE0F22E00E010E020E080910F0990E02E
:10400000A0E0B0E0002E04C0B695A79597958795DF
:104010000A94D2F780FF0EC0DD24D394D20E22235F
:1040200019F08CE20E94A02FF701859194910E94D3
:1040300058682D2D0F5F1F4FB2E0EB0EF11C0530BD
:104040001105D9F692CD88E696E08DCD1092B80D87
:1040500010921A020C944D2841E060E070E083E772
:1040600096E00E94C82D0C944D2883E50E941066AE
:10407000882381F00E946C65282F30E02D333105B4
:1040800024F4809300020C944D288CE3809300026A
:104090000C944D280E942C6B4091000250E060E08F
:1040A00070E081E896E00E9407698AE00E94A02FF4
:1040B0000C944D2880910F0983FF02C00C944D2869
:1040C00083E50E941066882311F40C944D280E9409
:1040D00094650F945E0C6337710514F063E770E02C
:1040E0007093F30D6093F20D0E947CAB0E94ECABD9
:1040F0008111D3C70E9478BC0E94E84ACEC7809144
:104100000F0983FDCAC783E50E9410668EA781113F
:104110000C94752A82E50E94106681110C94752A10
:10412000BCC783E50E941066882309F4B6C70E94C5
:104130006C65182F90E0CD970CF01CE31093E6020D
:104140000E946FF36B017C01212F30E0A8EEB3E0F9
:104150000F945F0AC60ED71EE81EF91EC092E20237
:10416000D092E302E092E402F092E50296C70E9448
:10417000FFAB0E9478BC0E941A820E94EA2E68EE71
:1041800073E080E090E00E94346860E086EA96E0A8
:104190000E949FBF82C78091EB028F7D80618093D8
:1041A000EB027BC783E50E941066882399F00E948A
:1041B000946520E030E04AE754E40F9442040F9401
:1041C000650C609301027093020280930302909346
:1041D000040263C780913E1484FF02C00C94F62B46
:1041E0008091401487FF02C00C94F62B80914114FB
:1041F000837011F00C94F62B0C94272C83E50E940D
:10420000C765882309F449C70E946FF36093CF14F0
:104210007093D0148093D1149093D2140E9494651B
:1042200020E030E04AE754E40F9442040F94650C18
:104230006093E7027093E8028093E9029093EA02A8
:104240002CC70E94306B87FD28C790913E1494FDC7
:1042500004C09091401497FF0AC010E7C12E12E0ED
:10426000D12E00E1E02E09E0F02E10E009C090917F
:104270004114937091F7682F81E00E94596B0DC72C
:10428000D6018D916D010E941066882309F459C0F2
:10429000133009F04FC00E9494654B015C0120E08F
:1042A00030E040EA51E40F94DC0387FF3AC0A501F7
:1042B0009401609130097091310980913209909197
:1042C00033090F94EC0B2B013C019B01AC01609175
:1042D00040097091410980914209909143090F94DE
:1042E000420460934009709341098093420990937E
:1042F00043096091870370918803809189039091AD
:104300008A030F94E103A30192010F9442040F94D6
:10431000650C60938703709388038093890390935F
:104320008A038092300990923109A0923209B092AA
:10433000330907C00E949465F701648B758B868BE7
:10434000978B1F5FF4E0EF0EF11C143009F098CF4B
:104350000E940DA5A2C60E94314A8EEC90E10E94F7
:1043600086B39BC68091421490914314009709F440
:10437000AECBDC012C91222309F4A9CB60E00E9492
:1043800033C08BC6009142141091431494E0F12C79
:1043900040E0915021F1F8018081282F2B7F2134BA
:1043A00021F421812133D9F407C08035C1F4818102
:1043B00080538A3048F013C0813421F0853421F4D1
:1043C00041E002C0FF24F39498012E5F3F4F890122
:1043D0002F5F3F4FF80180818032C9F3DACF41115E
:1043E0000E942C6BFF2021F080ED98E00E9458681D
:1043F000C8010E94AB3051C60E943FEE4EC681E01C
:104400008093F0098093EF090E945BEE46C660E05E
:1044100070E083E50E94CF668C0111270230110500
:104420003CF00E94286B84ED98E00E94586835C6E5
:1044300088E40E9410668823A9F00E9490658A3A59
:1044400091053CF08530F1E09F072CF084E091E08D
:1044500002C08AEA90E0F801EE0FFF1FE252FB4E25
:104460009183808386E40E941066882381F00E94F5
:10447000906597FD07C08F3F910529F024F08FEFDD
:1044800090E001C080E0F801E852FB4E808382E4B6
:104490000E941066882309F400C60E94906585304A
:1044A000910534F0843791052CF083E790E002C049
:1044B00085E090E0F801EE0FFF1FE652FB4E91837E
:1044C0008083EBC50E94306B182F87FDE6C584E41E
:1044D0000E94C7658823E9F10E9494656B017C0105
:1044E00001E020E030E0A9010F94DC03811101C05C
:1044F00000E00093710C20E030E0A901C701B60193
:104500000F94DC03882329F124E01202F001112426
:10451000EA58F34FC082D182E282F38220E030E099
:10452000A9016091760C7091770C8091780C909134
:10453000790C0F94DC0381110CC080E090E0A0EEB8
:10454000BFE38093760C9093770CA093780CB09394
:10455000790C0E94A581A1C50E94306B87FD9DC585
:10456000F0E7EF2EF2E0FF2E00E119E0D7018D9188
:104570007D010E94C765882359F00E9494650F94BD
:10458000650CF80160837183828393830E9496A4F3
:104590000C5F1F4FF9E000321F0741F77EC50E94F4
:1045A000306B87FD7AC5E0E7EE2EE2E0FE2E00E1FB
:1045B00019E0D7018D917D010E94C765882339F0EC
:1045C0000E949465F80164A375A386A397A30C5F6A
:1045D0001F4FF9E000321F0761F75FC580913F145C
:1045E00087FF02C00C942A2C809140148E7011F029
:1045F0000C942A2C40914409509145096091460938
:104600007091470986EF98E00E942569409148091A
:104610005091490960914A0970914B098EE69DE2DB
:104620000E94256940914C0950914D0960914E09B5
:1046300070914F0981EB9EE20E9425698AE00E94F9
:10464000A02F2BC580913E1481FF02C00C94702CCA
:1046500080913F1481FF02C00C94702C8091401413
:104660008C7011F00C94702C18C51F5FB4E0EB0E29
:10467000F11C133011F40C94A81988E5810F0E94E5
:10468000C765882391F30E949465D7016D937D934C
:104690008D939C931397812F0E943C88E6CF409086
:1046A000D1095090D2096090D3097090D40920911B
:1046B0001D0230911E0240911F0250912002C30141
:1046C000B2010F94F20A6E8F7F8F88A399A3809016
:1046D000D5099090D609A090D709B090D80920911B
:1046E0002102309122024091230250912402C501FF
:1046F000B4010F94F20A6AA37BA38CA39DA3C0907C
:10470000D909D090DA09E090DB09F090DC0920911A
:104710002502309126024091270250912802C701BC
:10472000B6010F94F20A6EA37FA388A799A72091E0
:10473000290230912A0240912B0250912C02C30190
:10474000B2010F94F20A2B013C0120912D0230910D
:104750002E0240912F0250913002C501B4010F94F6
:10476000F20A4B015C0120913102309132024091FA
:10477000330250913402C701B6010F94F20A6B0163
:104780007C010E942C6B85E399E00E94586883E5C8
:104790000E94C765882321F00E94806580933502BE
:1047A00080913502882319F082E890E102C081EF00
:1047B00097E00E9458688DE299E00E9458684E8DFB
:1047C0005F8D68A179A18CE09FE20E9425694AA1D2
:1047D0005BA16CA17DA18EE09EE00E9425694EA1A7
:1047E0005FA168A579A581E19EE20E94256983EC1D
:1047F00098E10E94586885E299E00E945868B301E8
:10480000A2018CE09FE20E942569B501A4018EE01F
:104810009EE00E942569B701A60181E19EE20E9407
:1048200025698AE00E94A02F38C483E50E941066A3
:10483000882331F00E94906590933702809336026E
:1048400080913E1490913F14A0914014B091411476
:10485000892B8A2B8B2B09F020C460913602709132
:10486000370285E499E00E94366985E20E94A02F14
:104870008AE00E94A02F11C40E94306BF82E87FDA1
:104880000CC483E50E9410660F2D0F2C000C110B39
:10489000882369F10E949065F801EE0FFF1FE05C2C
:1048A000FD4F91838083000F111F000F111FF8012E
:1048B000EA5FFD4F7F01BC01990F880B990B0F94A4
:1048C000E3032AE037ED43E25CE30F944204F8018E
:1048D000EE58F34F20813181428153810F9442047D
:1048E000D7016D937D938D939C931397D6C30E94AC
:1048F0002C6B85E40E94A02F80E38F0D0E94A02FD7
:10490000F801EE0FFF1FE05CFD4F6081718189E4CB
:1049100099E00E94366985E20E94A02F8AE00E94F9
:10492000A02FBBC380E50E94C765882309F4B5C3E7
:1049300060E070E080E50E94CF66F82E6FEF7FEFB9
:1049400083E50E94CF668C010196039708F0A5C30A
:10495000F7FCA3C38F2D0E94C5F3882339F00E9472
:10496000286B81E599E00E94586897C30E940A82EB
:1049700060E08F2D0E94624D0F3FBFEF1B0731F0AB
:104980000130110571F000E010E00DC08F2D0E9484
:104990000A4D31E020E0892B09F030E0032F122F7F
:1049A00002C001E010E08F2D0E940A4D8017910790
:1049B00009F473C30E94CC30F6CF8AE50E941066DA
:1049C000811106C083E50E941066882309F440C067
:1049D0000E94946520E030E040E050EC0F94DC034E
:1049E00087FF02C00C94F92C0E94946520E030E00F
:1049F00040E050E40F94520D181614F40C94F32C6C
:104A00000E9494652091F2092695269520FF20C0EA
:104A100020912C0930912D0940912E0950912F0998
:104A20000F9442040F945E0C2091F80C3091F90C15
:104A3000260F371F3093F90C2093F80C20911C0D92
:104A400030911D0D620F731F70931D0D60931C0D2F
:104A50008091401487FF02C00C94FF2C8091411478
:104A6000837011F00C94FF2C0E942C6B4091490C28
:104A700050914A0C60914B0C70914C0C80E699E07F
:104A80000E9425698AE00E94A02F07C364E071E0BC
:104A900083E50E947AE78C0168EE73E080E50E946E
:104AA0007AE78938E3E19E0710F088E893E1B801DE
:104AB0000E9468BFF2C285E40E94304B811173C02E
:104AC00080E50E94C765882351F00E949465609339
:104AD0001A0E70931B0E80931C0E90931D0E89E48A
:104AE0000E94C765882381F00E9494652CEA35EC0A
:104AF00047E25EE30F94420460931E0E70931F0E14
:104B00008093200E9093210E84E40E94C765882331
:104B100081F00E9494652CEA35EC47E25EE30F9445
:104B2000EC0B6093220E7093230E8093240E9093CF
:104B3000250E0E942C6B40911A0E50911B0E609115
:104B40001C0E70911D0E87E899E00E9425692CEAE1
:104B500035EC47E25EE360911E0E70911F0E80916E
:104B6000200E9091210E0F94EC0BAB01BC0183E859
:104B700099E00E9425692CEA35EC47E25EE36091FA
:104B8000220E7091230E8091240E9091250E0F9489
:104B90004204AB01BC018FE799E00E9425698AE0DD
:104BA0000E94A02F7AC20E94286B8DE699E00E9495
:104BB000586873C283E40E94C765882321F00E946D
:104BC00090650E9467C560916E0270916F028BE8DC
:104BD00099E00E9436698AE00E94A02F5EC283E5B8
:104BE0000E94C765182F882371F00E9494650F9466
:104BF0005E0C70930B0260930A0221E0672B09F0B0
:104C000020E02093A80380E50E94C765882359F01F
:104C100020910A0230910B02232B11F00E94806533
:104C20008093A8033AC2111138C20E942C6B83EB07
:104C300099E00E9458688091A803882319F08DE7B5
:104C400091E102C08AE999E00E94586860910A02E5
:104C500070910B0282EA99E00E9436698EE999E030
:104C60000E9458681AC20E940A8217C20E94946B5E
:104C700014C288E50E94C765D82E89E40E94C765E2
:104C8000C82E882321F00E949065A82E28C0DD2020
:104C900011F10E9494652091D1093091D20940917F
:104CA000D3095091D4090F94F10A20E030E040E29A
:104CB00051E40F94F10A20E030E048E452E40F940C
:104CC000F20A2AE037ED43E25CE30F9442040F94CA
:104CD0005E0C633018F0AA24AA9401C0A62E89E5C0
:104CE0000E94C765F82E8AE40E94C765182F8823A2
:104CF00021F00E949065B82E28C0FF2011F10E947B
:104D000094652091D5093091D6094091D7095091E9
:104D1000D8090F94F10A20E030E040E251E40F940A
:104D2000F10A20E030E048E452E40F94F20A2AE06D
:104D300037ED43E25CE30F9442040F945E0C633062
:104D400018F0BB24BA9401C0B62E8AE50E94C7654C
:104D5000E82E811105C081E50E94C765082F01C0BA
:104D600000E0C11001C010E0212F30E0D11001C0DF
:104D7000F12C2F0D311D2130310521F4E11009C036
:104D8000011107C00E94286B86EC99E00E945868C8
:104D900084C1A7FC02C0B7FE07C00E94286B8EE743
:104DA00095E00E94586879C10E949465EA2CAA0C8B
:104DB000FF08AB2DBB0CBB0B002391F0F701EE0FEE
:104DC000FF1FEE0DFF1DEA0FFB1FEE0FFF1FEE0F83
:104DD000FF1FE35BF34F208131814281538103C088
:104DE00020E030E0A901F701EE0FFF1FEE0DFF1DDF
:104DF000EA0FFB1FEE0FFF1FEE0FFF1F8F01035B7C
:104E0000134F0F94F20AD8016D937D938D939C9369
:104E1000139743C190912C0C90FD02C087E001C014
:104E200086E091FD8D7FFE0131961F0192FFEEC558
:104E30008B7F09F018C605EB17E125EF3DE03F8FAA
:104E40002E8F98EEC92E97E1D92E7F01F80165913A
:104E5000759185919491AE8DBF8D8D909D90AD9003
:104E6000BD90BF8FAE8FA50194010F94F10A2B0165
:104E70003C01F701608371838283938320E030E0FB
:104E800040EA51EC0F94520D87FD0AC020E030E05B
:104E900040EA51E4C301B2010F94DC0318162CF46C
:104EA000F601849118160CF4E1C5D7018D909D9000
:104EB000AD90BD907D0120E030E040EA51ECC501AD
:104EC000B4010F94520D87FDDCC520E030E040EACC
:104ED00051E4C501B4010F94DC0318160CF0E5C5CC
:104EE000D0C50E945073D9C00E9484EFD6C00E94E2
:104EF00074EED3C061E083E50E94DE6691E089270D
:104F00000E9492EFCAC081E08093D3140E945F6D2B
:104F10001092D314882309F4C0C00E942C6B84E340
:104F20009AE00E945868B9C080916F1282FFB5C0A4
:104F3000806480936F12B1C0A090A903B090AA03BF
:104F4000C090AB03D090AC038BE40E941066882322
:104F500039F10E9494657B018C0120E030E0A901C9
:104F60000F94520D87FD0AC020E030E040E251E48A
:104F7000B701C8010F94DC031816A4F48FE30E9454
:104F8000A02F8BE40E94A02F87E49AE00E9458682B
:104F90008FE39AE00E94586888EC96E10E94586876
:104FA000750186019701A801B501C6010F94DC03C4
:104FB000882361F00E940A82C701D8018093A90367
:104FC0009093AA03A093AB03B093AC0380913E14DB
:104FD00090913F14A0914014B0914114892B8A2BD9
:104FE0008B2B09F05AC00E942C6B4091A903509161
:104FF000AA036091AB037091AC038BE59AE00E9429
:1050000025698AE00E94A02F48C081E08093C50BEB
:105010001092B70D60E083E50E94DE6681113DC00D
:105020000E9445E03AC00E94F3BB6D3371058105D3
:10503000910520F08EE79AE00E94A7E78AE79AE0C0
:105040000E94A7E786E69AE00E94586881E095E111
:105050009093010A8093000A20C00E94224B1DC039
:1050600000914414109145140023B9F00E942C6B58
:1050700084E50E94A02FB8017727072E000C880B2B
:10508000990B0E94143080E20E94A02F8DE699E0D7
:105090000E94586802C00E94224BF8ADF11102C074
:1050A0000E9435E02DA52093EC023EC50E940A82A5
:1050B00030917A0C3BA780E00E9403678091380210
:1050C00090913902A0913A02B0913B028093EF0295
:1050D0009093F002A093F102B093F2028091360215
:1050E000909137029093EE028093ED0284E690E077
:1050F000909337028093360281E08093F0090E94FA
:105100005BEE88E50E94C765182F89E50E94C76598
:10511000082F8AE50E94C765101367C1181711F0A0
:10512000312E64C13324339411E031E03EA380E199
:10513000E5EFFDE0ADE2BCE001900D928A95E1F76C
:1051400082E50E941066882369F00E9494656B01D5
:105150007C0120E030E0A9010F94DC03882309F4EE
:105160003FC006C0C12CD12C70EAE72E70E4F72EA8
:10517000111103C0332009F40BC18091F20982FDA3
:1051800009C06091FD0D7091FE0D8091FF0D909111
:10519000000E03C060E070E0CB01A70196010F9400
:1051A000F20A6093350C7093360C8093370C909311
:1051B000380C2091FD0D3091FE0D4091FF0D509166
:1051C000000E0F94520D18165CF419821A821B827D
:1051D0001C82BE016F5F7F4F85E39CE00E94374BCE
:1051E000112309F4D0C0332009F4CAC01092F50D80
:1051F0001092F60D1092F70D1092F80D1092F90D15
:105200001092FA0D1092FB0D1092FC0D0E94938CDF
:10521000E8EEF7E144914CA7ECEDF7E1C590D590AD
:10522000E590F490E0EEF7E185909590A590B4902C
:10523000A7019601C501B4010F94DC0387FF05C0E7
:10524000A7019601C501B40104C0A5019401C701DD
:10525000B6010F94EC0B2B013C01E5ECF7E18591D5
:105260009591A591B4918E8F9F8FA8A3B9A3E1ECDE
:10527000F7E125913591459154912AA33BA34CA385
:105280005DA3BC01CD010F94520D181634F42AA071
:105290003BA13AA70CA11DA105C02E8C4F8D4AA79A
:1052A00008A119A1A3019201C301B2010F94420404
:1052B00020E030E040E85FE30F94F20A0F94A00D85
:1052C000222D3AA5A8010F94420469837A838B8327
:1052D0009C83E9EEF7E114914090FD0D5090FE0D96
:1052E0006090FF0D7090000E20E030E040EC5FE336
:1052F000C501B4010F9442044B015C01612F110FF1
:10530000770B880B990B0F94E3039B01AC01C5014C
:10531000B4010F9442044B015C0120E030E040EC0A
:105320005FE3C701B6010F9442046B017C015CA5E9
:10533000652F550F770B880B990B0F94E3039B0197
:10534000AC01C701B6010F944204DE0111966D0154
:1053500083017201A50194010E94D48B0E9466EE24
:105360001092F50D1092F60D1092F70D1092F80DA7
:105370001092F90D1092FA0D1092FB0D1092FC0D87
:1053800080E00E9401FD332019F081E00E9401FDC0
:10539000BEA1BB2319F082E00E9401FD0E94938C04
:1053A0008091EF098093F0098BA50E94036780919B
:1053B000EF029091F002A091F102B091F20280937D
:1053C000380290933902A0933A02B0933B02809145
:1053D000ED029091EE02909337028093360283E0C3
:1053E00080930C020E94958C58CE302E8EA39FCEB7
:1053F0000E94CC300C94ED1C1092B80D1093EC026E
:105400000E94E84A4ACE88E50E94C76581115F98EC
:1054100089E50E94C76581118A988AE50E94C7655F
:10542000882329F08091080181708093060185E42A
:105430000E94C765882309F430CE12982ECE60E012
:105440008AEA95E00E949FBF5F988A988091080140
:10545000817080930601129820CE0E945C65AB019A
:10546000BC0140936B1250936C1260936D12709359
:105470006E1281E390E10E94A1EB0FCE8DE40E94B9
:1054800010668823A9F00E946C65813039F020F005
:10549000823049F462E003C060E001C061E0802F27
:1054A0000E94624D05C086E596E00E945868F5CDE1
:1054B00083E50E941066882309F4EFCD0E946C6595
:1054C000F82E99E0E91203C080939703E6CD61E0DE
:1054D000802F0E94624D6F2D802F0E94334D6F2DC3
:1054E00070E0802F0E946CF2D8CD0E9494650F94DA
:1054F0005E0C633771050CF076C17093F30D609309
:10550000F20D0E947CAB0E94ECAB81110E9442BC68
:105510006091F20D7091F30D072E000C880B990B22
:105520000F94E3032091EE0D3091EF0D4091F00DBB
:105530005091F10D0F94520D18161CF487E996E066
:1055400002C088E896E060E00E949FBF81E08093FF
:105550001A021AA21BA21CA21DA21FA618AA19AAEF
:105560001AAA1E8E1CAAECE3EDABFCE1FEAB26E40E
:105570002FABC12CD12C80E8E82E9FEBF92E31E027
:105580003BAB812C912C54016091F20D7091F30D85
:10559000072E000C880B990B0F94E303162F072F8F
:1055A000782E692E9601A7010F94DC03882321F140
:1055B0002091EE0D3091EF0D4091F00D5091F10DD5
:1055C0008EA5612F702F811109C0872D962D0F9404
:1055D000DC03881F8827881F8E8F14C0872D962D87
:1055E0000F94DC0387FF0DC080911A02882309F411
:1055F00054CD0E94E84A51CD1C2D0D2D7E2C6F2CD0
:1056000001C01E8E0E946FF36B017C01DC01CB0197
:105610002FA538A949A95AA9821B930BA40BB50B36
:10562000B7FD33C0D701C60188519C4FAF4FBF4F64
:105630008FA798ABA9ABBAAB80E00E94D6D184E12A
:105640009DE20E94586881149104A104B104B9F04C
:10565000D501C401805F984DAF4FBF4FBC01CD0154
:105660006C197D098E099F0928EE33E040E050E077
:105670000F94320ACA01B9010E94143003C08FE3AB
:105680000E94A02F8AE00E94A02F0E94CC300E948E
:105690006FF36093CF147093D0148093D1149093D0
:1056A000D2149091EE0D9EA3A091EF0DAAA7B091F8
:1056B000F00DBBA7E091F10DECA7292F3A2F4B2F4E
:1056C0005E2F612F702F872D962D0F94F10A1B01ED
:1056D0002C0120E030E0A9010F94520D87FF04C097
:1056E00057FA509457F8509481149104A104B104CE
:1056F000B1F420E030E040E85FE3C201B1010F9473
:10570000DC0387FF18C0FBA946015701FF2399F06E
:1057100020E1820E27E2921EA11CB11C0CC020E0E9
:1057200030E040E450E4C201B1010F94520D18166C
:1057300014F4460157013E8D3323C1F18AA19BA188
:10574000ACA1BDA1892B8A2B8B2B61F0D701C6019F
:105750002AA13BA14CA15DA1821B930BA40BB50B0D
:10576000B7FD24C02EA13AA54BA55CA56CA97DA9C7
:105770008EA99FA90F94F10A20E030E040E85FE392
:105780000F94DC0387FD30CFD701C601805A9541C5
:10579000AF4FBF4F8AA39BA3ACA3BDA39EA19CAB5D
:1057A000AAA5ADABBBA5BEABECA5EFAB80911A0231
:1057B000882309F419CF81149104A104B10431F4B0
:1057C0001BAAC12ED02EE72CF62CDECEF0E1CF1A8C
:1057D000F7E2DF0AE108F108C818D908EA08FB086F
:1057E000F7FCEECF01CF63E770E087CE0E940A821C
:1057F00088E50E94C765882331F05F9A8091F2099D
:105800008E7F8093F20989E50E94C765882331F075
:105810008A9A8091F2098D7F8093F2098AE50E942D
:10582000C765882359F08091080180958170809325
:1058300006018091F2098B7F8093F20985E40E9432
:10584000C765882309F429CC0E94AD2D26CC0E947F
:105850001A8223CC83E50E941066882391F00E946F
:105860009465609344097093450980934609909329
:10587000470960934C0970934D0980934E099093AA
:105880004F0980E50E941066882351F00E949465BC
:1058900060934409709345098093460990934709A2
:1058A00082E50E941066882351F00E9494656093FF
:1058B00048097093490980934A0990934B0984E5FC
:1058C0000E941066882309F4E8CB0E9494656093D7
:1058D0004C0970934D0980934E0990934F09DDCB8D
:1058E00082E40E94C765882351F00E944C65609352
:1058F000200970932109809322099093230983E55D
:105900000E94C765882351F00E94946560935009F6
:1059100070935109809352099093530984E50E9432
:10592000C765882351F00E94946560935409709371
:10593000550980935609909357098AE40E94C765D8
:10594000882309F4AACB0E9494656B017C012AE0AC
:1059500037ED43E25CE30F94520D87FD3DC02AE929
:1059600039E949E95EE3C701B6010F94DC03181673
:105970009CF1C0927703D0927803E0927903F09281
:105980007A03609110097091110980911209909128
:1059900013090F94E1034B015C0123EF34E045E36D
:1059A0005FE3C701B6010F9442042AE136EF45E9EF
:1059B0005EE30F94EC0B9B01AC01C501B4010F94A5
:1059C00042040F94A00D60938F0370939003809313
:1059D00091039093920361CB0E94286B86E099E03B
:1059E0000E9458685ACB60E070E080E090E40C942C
:1059F000022560E070E080E090EC0C94022582E5E6
:105A00000E94C76581110C94342547CB21ED32E00B
:105A100081FF03C043ED52E002C040EE52E080FF40
:105A200003C085ED92E002C080EE92E03F932F9399
:105A30005F934F939F938F9386EE99E09F938F93FD
:105A40003F922F920F9474030E942C6BC1010E940D
:105A5000AB3060E0C1010E9433C00FB6F894DEBFE6
:105A60000FBECDBF1ACB20EE32E0D2CFB7FAB09442
:105A7000B7F8B094D7018D929D92AD92BC921397D6
:105A800014CA0E94286B86E19AE00E94586861E07F
:105A900088E09AE00E949FBF0E948D7868E270E0E3
:105AA00088EC90E00E9468BFF8CA0C5F1F4FBFEF00
:105AB000CB1ADB0AE7E1013C1E0709F0C7C983EFF7
:105AC000E82E89E0F82E10E0F10181919191A191E9
:105AD000B1911F01F70181939193A193B1937F013C
